:1000000012C0189518951895189518951895189563
:100010001895189518951895189518951895189578
:100020001895189518958FE58DBFC0E4E8E34E2E1E
:1000300084E08EBFD4E0F4E05F2EEEEFF3E0A0E6C4
:10004000B0E088278D933197E9F730D06624EAEB4A
:10005000F1E01CD084E690E09DD01ED0E0ECF1E011
:1000600015D084E690E096D019D0E4ECF1E00ED003
:1000700084E690E08FD010D0EAECF1E007D084E67F
:1000800090E088D00BD0E3CFF894FFCF92D0802DB2
:1000900011F04ED0FBCF089580EC50C081E04ED0DF
:1000A00002D080E84BC083E0992774C08AEF90E0CB
:1000B00071D08B9A8A9A899A889A8C9A8D9A9598F7
:1000C00085E090E067D0949893989298919A909A4E
:1000D000949AEF93FF93E4ECF0E050D0FF91EF910E
:1000E000949855D0949AEF93FF93E4ECF0E046D0C7
:1000F000FF91EF9194984BD0949AEF93FF93E4EC97
:10010000F0E03CD0FF91EF91949841D09098949A70
:10011000EF93FF93E4ECF0E031D0FF91EF919498EE
:1001200036D088E20BD08EE009D086E007D0089563
:10013000959A829505D004D02AD008959598F9CF44
:10014000859510F4909A01C09098859510F4919A35
:1001500001C09198859510F4929A01C09298859566
:1001600010F4939A01C09398949AEF93FF93E4EC60
:10017000F0E004D0FF91EF91949808953197F1F752
:100180000895689462F80895E89462F8089581E00B
:1001900090E000C0EF93FF93EE27E82BE92B31F0BE
:1001A000E0EDF7E03197F1F70197D1F7FF91EF918B
:1001B0000895C895319600200895594033304E0077
:0E01C000414C4900536164656800416D6F0059
:00000001FF
