:1000000012C0189518951895189518951895189563
:100010001895189518951895189518951895189578
:100020001895189518958FE58DBFC0E4E8E34E2E1E
:1000300084E08EBFD4E0F4E05F2EEEEFF3E0A0E6C4
:10004000B0E088278D933197E9F7662480E081BB83
:100050008898909A8998919A8A98929A8B98939A6C
:100060008C98949A8D98959A8E98969AB99ABA9AED
:1000700081EA8FBD82E08EBD80E090E090934B00DE
:1000800080934A0080E090E090934900809348007C
:100090008FEF87BB00B3083009F002C052C051C0D7
:1000A0000C3009F002C04DC04CC0083109F002C04C
:1000B00048C047C00C3109F002C043C042C00737F6
:1000C00009F002C03EC03DC0043009F002C04AC081
:1000D00038C0063009F002C045C033C0023009F014
:1000E00002C040C02EC0033009F002C03BC029C08E
:1000F000013009F002C036C024C0003109F002C04E
:1001000042C01FC0003209F002C03DC01AC0003317
:1001100009F002C038C015C0003409F002C033C075
:1001200010C0003609F002C02EC00BC00F3709F016
:1001300002C03AC006C0003009F002C035C001C09C
:10014000A9CFC09AC398C49AC59888EC90E09093C0
:100150004B0080934A0088EC90E090934900809394
:10016000480098CFC098C39AC49AC59884E690E096
:1001700090934B0080934A008AEA90E09093490064
:100180008093480087CFC09AC398C498C59A8AEADA
:1001900090E090934B0080934A0084E690E0909327
:1001A00049008093480076CFC098C398C498C598FA
:1001B00071CF70CFF894FFCF3197F1F7089568941D
:0A01C00062F80895E89462F80895CB
:00000001FF
