:1000000012C0189518951895189518951895189563
:100010001895189518951895189518951895189578
:100020001895189518958FE58DBFC0E4E8E34E2E1E
:1000300084E08EBFD4E0F4E05F2EEEEFF3E0A0E6C4
:10004000B0E088278D933197E9F7CAD0662480E025
:1000500081BB8898909A8998919A8A98929A8B985D
:10006000939A8C98949A8D98959A8E98969AB99A14
:10007000BA9A81EA8FBD82E08EBD80E090E09093D5
:100080004B0080934A0080E090E090934900809379
:1000900048008FEF87BB00B3083009F002C04DC0A5
:1000A0004CC00C3009F002C048C047C0083109F00C
:1000B00002C043C042C00C3109F002C03EC03DC086
:1000C000073F09F002C039C038C0043009F002C04F
:1000D0004DC033C0063009F002C048C02EC0023007
:1000E00009F002C043C029C0033009F002C03EC07D
:1000F00024C0013009F002C039C01FC0003109F02E
:1001000002C045C01AC0003209F002C040C015C08C
:10011000003309F002C03BC010C0003409F002C037
:1001200036C00BC0003609F002C031C006C00F3720
:1001300009F002C03DC001C0AECFC09AC398C49AB6
:10014000C598EEEEF2E03CD084E690E0BDD03ED023
:100150003FD086E990E090934B0080934A0086E977
:1001600090E0909349008093480095CFC098C39A3F
:10017000C49AC59884E690E090934B0080934A001F
:1001800082E890E0909349008093480084CFC09A21
:10019000C398C498C59A82E890E090934B008093EE
:1001A0004A0084E690E0909349008093480073CF22
:1001B000C098C398C498C5986ECF6DCFF894FFCF00
:1001C00092D0802D11F04ED0FBCF089580EC50C01E
:1001D00081E04ED002D080E84BC083E0992774C004
:1001E0008AEF90E071D0A39AA29AA19AA09AA49AB9
:1001F000A59AAD9885E090E067D0AC98AB98AA98A6
:10020000A99AA89AAC9AEF93FF93E5E1F0E050D059
:10021000FF91EF91AC9855D0AC9AEF93FF93E5E145
:10022000F0E046D0FF91EF91AC984BD0AC9AEF93B1
:10023000FF93E5E1F0E03CD0FF91EF91AC9841D025
:10024000A898AC9AEF93FF93E5E1F0E031D0FF91ED
:10025000EF91AC9836D088E20BD08EE009D086E0E2
:1002600007D00895AD9A829505D004D02AD008957C
:10027000AD98F9CF859510F4A89A01C0A8988595F6
:1002800010F4A99A01C0A998859510F4AA9A01C002
:10029000AA98859510F4AB9A01C0AB98AC9AEF93ED
:1002A000FF93E5E1F0E004D0FF91EF91AC98089561
:1002B0003197F1F70895689462F80895E89462F828
:1002C000089581E090E000C0EF93FF93EE27E82BC4
:1002D000E92B31F0EAEFF0E03197F1F70197D1F730
:1002E000FF91EF910895C8953196002008955261CD
:0402F0007374000023
:00000001FF
