:100000000C942A001895000018950000189500001F
:10001000189500001895000018950000189500002C
:10002000189500001895000018950000189500001C
:10003000189500001895000018950000189500000C
:1000400018950000189500001895000018950000FC
:10005000189500008FE58DBFC0E4E8E34E2E88E0E0
:100060008EBFD8E0F8E05F2EEEEFF7E0A0E6B0E05C
:1000700088278D933197E9F70E94A70266248FEFB6
:100080008ABBEAE6F6E00E94960284E690E00E94CF
:1000900022030E949D02E8E7F6E00E94960288ECA7
:1000A00090E00E9422030E949F02E8E8F6E00E948E
:1000B000960284E690E00E9422030E949D02EAE9F3
:1000C000F6E00E94960288EC90E00E9422030E94D3
:1000D0009F0280E087BBB898C09AB998C19ABA9835
:1000E000C29ABB98C39ABC98C49ABD98C59ABE9848
:1000F000C69A8D9A8C9A81EA8FBD82E08EBD80E08F
:1001000090E090934B0080934A0080E090E09093C1
:100110004900809348008FEF81BB06B3083011F08F
:100120000C9496000C94B3010C94D0000C3111F097
:100130000C949E000C94B3010C94D0000C3011F080
:100140000C94A6000C94B3010C94D000083111F06B
:100150000C94AE000C94B3010C94D000073711F04E
:100160000C94B6000C94D2000C94D000033611F01D
:100170000C94BE000C94D2000C94D000033711F004
:100180000C94C6000C94D2000C94D000073611F0E9
:100190000C94CE000C94D2000C94D0000C948D00E2
:1001A0000C948D0006B3073711F00C94DB000C940F
:1001B0004D010C944D01033711F00C94E3000C94A5
:1001C0004D010C944D01073611F00C94EB000C948A
:1001D0004D010C944D01033611F00C94F3000C9476
:1001E0004D010C944D010B3711F00C94FB000C9455
:1001F00069010C944D01093711F00C9403010C9422
:1002000069010C944D010D3711F00C940B010C9405
:1002100069010C944D010C3711F00C9413010C94EE
:1002200069010C944D010E3711F00C941B010C94D4
:1002300069010C944D010F3611F00C9423010C94BC
:1002400085010C944D010F3511F00C942B010C9489
:1002500085010C944D010F3411F00C9433010C9472
:1002600085010C944D010F3311F00C943B010C945B
:1002700085010C944D010F3111F00C9443010C9445
:1002800085010C944D010F3711F00C944B010C9427
:10029000A1010C944D010C948D00909A9198929A22
:1002A00093988CE390E090934B0080934A008CE30A
:1002B00090E09093490080934800ECEAF6E00E94B9
:1002C000960284E690E00E9422030E949F020C9412
:1002D000D2009098919A929A93988AE090E09093A5
:1002E0004B0080934A0082E390E090934900809312
:1002F0004800E6EBF6E00E94960284E690E00E9459
:1003000022030E949F020C94D200909A9198929896
:10031000939A82E390E090934B0080934A008AE0A6
:1003200090E09093490080934800ECEBF6E00E9447
:10033000960284E690E00E9422030E949F020C94A1
:10034000D2009098919892989398E2ECF6E00E94EF
:10035000960284E690E00E9422030E949F020C9481
:10036000B3010C94D20006B3083011F00C94BC0118
:100370000C942E020C942E020C3011F00C94C4013B
:100380000C942E020C942E02083111F00C94CC0126
:100390000C942E020C942E020C3111F00C94D4010A
:1003A0000C942E020C942E02043011F00C94DC01FB
:1003B0000C944A020C942E02063011F00C94E401C5
:1003C0000C944A020C942E02023011F00C94EC01B1
:1003D0000C944A020C942E02033011F00C94F40198
:1003E0000C944A020C942E02013011F00C94FC0182
:1003F0000C944A020C942E02003111F00C94040269
:100400000C9466020C942E02003211F00C940C0233
:100410000C9466020C942E02003311F00C9414021A
:100420000C9466020C942E02003411F00C941C0201
:100430000C9466020C942E02003611F00C942402E7
:100440000C9466020C942E02003011F00C942C02D5
:100450000C9482020C942E020C948D00909A919828
:10046000929A93988CE390E090934B0080934A008B
:100470008CE390E09093490080934800ECEAF6E02A
:100480000E94960284E690E00E9422030E949F024E
:100490000C94B3019098919A929A93988AE090E084
:1004A00090934B0080934A0082E390E09093490040
:1004B00080934800E6EBF6E00E94960284E690E026
:1004C0000E9422030E949F020C94B301909A91987B
:1004D0009298939A82E390E090934B0080934A0025
:1004E0008AE090E09093490080934800ECEBF6E0BE
:1004F0000E94960284E690E00E9422030E949F02DE
:100500000C94B3019098919892989398E2ECF6E04D
:100510000E94960284E690E00E9422030E949F02BD
:100520000C94B3010C94B301F894FFCF0E943103F3
:10053000802D11F054D0FACF089580EC56C081E0A0
:1005400054D002D080E851C083E099277BC08AEF65
:1005500090E00E942203D39AD29AD19AD09AD49A48
:10056000D59ADD9885E090E00E942203DC98DB9824
:10057000DA98D99AD89ADC9AEF93FF93E7E4F0E0FF
:100580000E941603FF91EF91DC9859D0DC9AEF930B
:10059000FF93E7E4F0E00E941603FF91EF91DC98EF
:1005A0004ED0DC9AEF93FF93E7E4F0E00E9416034D
:1005B000FF91EF91DC9843D0D898DC9AEF93FF93AA
:1005C000E7E4F0E00E941603FF91EF91DC9837D04A
:1005D00088E20BD08EE009D086E007D00895DD9A3E
:1005E000829505D004D02BD00895DD98F9CF85955C
:1005F00010F4D89A01C0D898859510F4D99A01C002
:10060000D998859510F4DA9A01C0DA98859510F496
:10061000DB9A01C0DB98DC9AEF93FF93E7E4F0E00C
:100620000E941603FF91EF91DC9808953197F1F73E
:100630000895689462F80895E89462F8089581E056
:1006400090E000C0EF93FF93EE27E82BE92B31F009
:10065000EEEEF2E03197F1F70197D1F7FF91EF91CC
:100660000895C8953196002008955348414849445B
:10067000204D4144414E4900476F726F75686520B7
:100680003C417261733E0000534144454720415351
:1006900041444E455A4841440000414C492053488A
:1006A00052494D4F48414D41444900004D6F7374CC
:1006B000616768696D00436861700000526173741E
:0806C000000053544F500000EC
:00000001FF
