:1000000012C0189518951895189518951895189563
:100010001895189518951895189518951895189578
:100020001895189518958FE58DBFC0E4E8E34E2E1E
:1000300084E08EBFD4E0F4E05F2EEEEFF3E0A0E6C4
:10004000B0E088278D933197E9F766248898909AD5
:100050008998919A8A98929A8B98939A8C98949A64
:100060008D98959A8E98969AB99ABA9A81EA8FBD88
:1000700082E08EBD80E090E090934B0080934A0038
:1000800080E090E090934900809348008FEF87BB19
:1000900000B3083009F002C04DC04CC00C3009F06C
:1000A00002C048C047C0083109F002C043C042C086
:1000B0000C3109F002C03EC03DC0073F09F002C04C
:1000C00039C038C0043009F002C045C033C0063022
:1000D00009F002C040C02EC0023009F002C03BC08F
:1000E00029C0033009F002C036C024C0013009F035
:1000F00002C031C01FC0003109F002C03DC01AC0AB
:10010000003209F002C038C015C0003309F002C047
:1001100033C010C0003409F002C02EC00BC000363E
:1001200009F002C029C006C00F3709F002C035C06F
:1001300001C0AECFC09AC398C49AC5988CE390E032
:1001400090934B0080934A008CE390E09093490099
:10015000809348009DCFC098C39AC49AC5988AE0FE
:1001600090E090934B0080934A0082E390E090935C
:100170004900809348008CCFC09AC398C498C59A10
:1001800082E390E090934B0080934A008AE090E0F5
:1001900090934900809348007BCFC098C398C4983F
:1001A000C59876CF75CFF894FFCF3197F1F70895C2
:0C01B000689462F80895E89462F80895DD
:00000001FF
